:100000000C942A000C9447000C9447000C94470071
:100010000C9447000C9447000C9447000C94470044
:100020000C9447000C9447000C9447000C94470034
:100030000C9447000C9447000C9447000C94470024
:100040000C9447000C9447000C9447000C94470014
:100050000C94470011241FBECFE5D4E0DEBFCDBF16
:1000600010E0A0E6B0E0E4EFF1E002C005900D92F0
:10007000AC36B107D9F710E0ACE6B0E001C01D9294
:10008000AC36B107E1F70E94B6000C94F8000C946E
:100090000000282F207F25BBA898A998AA9A20E4C1
:1000A0003CE9F9013197F1F7AA9890E044E0880F14
:1000B000991F4A95E1F785BBA898A998AA9AC90102
:1000C0000197F1F7AA980895282F207F25BBA89AB9
:1000D000A998AA9A20E43CE9F9013197F1F7AA9886
:1000E00090E054E0880F991F5A95E1F785BBA89AD4
:1000F000A998AA9AC9010197F1F7AA980895CF93F0
:10010000DF93EC0184E00E9449000EC0CE016AE05A
:1001100070E00E94D100805D0E946400CE016AE020
:1001200070E00E94D100EB01209781F786E00E94E9
:100130004900DF91CF91089582E00E94490088E252
:100140000E94490086E00E9449008CE00E9449001C
:100150000895CF93DF93EC0103C021960E946400C1
:1001600088818823D1F7DF91CF9108951ABA8FEF54
:1001700084BB0E949C0080E80E94490080E690E0D9
:100180000E94A90088EE93E020E931E0F90131975F
:10019000F1F70197D9F7C89B02C089B389B389B336
:1001A000FACF97FB092E07260AD077FD04D00CD092
:1001B00006D000201AF4709561957F4F0895F6F7E8
:1001C000909581959F4F0895AA1BBB1B51E107C0D5
:1001D000AA1FBB1FA617B70710F0A61BB70B881FD7
:1001E000991F5A95A9F780959095BC01CD01089566
:0401F000F894FFCFB1
:0C01F40056697369746F72733A20000042
:00000001FF
