:100000000C942A000C9447000C9447000C94470071
:100010000C9447000C9447000C9447000C94470044
:100020000C9447000C9447000C9447000C94470034
:100030000C9447000C9447000C9447000C94470024
:100040000C9447000C9447000C9447000C94470014
:100050000C94470011241FBECFE5D4E0DEBFCDBF16
:1000600010E0A0E6B0E0E0E2F1E002C005900D9201
:10007000A036B107D9F710E0A0E6B0E001C01D92AC
:10008000A036B107E1F70E9449000C948E000C9451
:1000900000001F938FEF87BB11E020E931E0B2E051
:1000A000A4E07BE06FE053E049E018BB80E197E219
:1000B000F9013197F1F70197D9F7B8BB80E197E2E1
:1000C000F9013197F1F70197D9F7A8BB80E197E2E1
:1000D000F9013197F1F70197D9F778BB80E197E201
:1000E000F9013197F1F70197D9F768BB80E197E201
:1000F000F9013197F1F70197D9F758BB80E197E201
:10010000F9013197F1F70197D9F748BB80E197E200
:10011000F9013197F1F70197D9F7C7CFF894FFCFDD
:00000001FF
