:100000000C942A000C9447000C9447000C94470071
:100010000C9447000C9447000C9447000C94470044
:100020000C9447000C9447000C9447000C94470034
:100030000C9447000C9447000C9447000C94470024
:100040000C9447000C9447000C9447000C94470014
:100050000C94470011241FBECFE5D4E0DEBFCDBF16
:1000600010E0A0E6B0E0EAEFF0E002C005900D92EB
:10007000A036B107D9F710E0A0E6B0E001C01D92AC
:10008000A036B107E1F70E944F000C947B000C945E
:10009000000083B78A6683BF88E087BB089583B773
:1000A0008A6683BF88E087BB74E629E130E06AE0B6
:1000B00056E94AEF7CBF80E395E7F9013197F1F704
:1000C0000197D9F76CBF80E395E7F9013197F1F714
:1000D0000197D9F75CBF80E395E7F9013197F1F714
:1000E0000197D9F74CBF80E395E7F9013197F1F714
:0A00F0000197D9F7DFCFF894FFCF96
:00000001FF
