:100000000C942A000C9447000C9447000C94470071
:100010000C9447000C9447000C9447000C94470044
:100020000C9447000C9447000C9447000C94470034
:100030000C9447000C9447000C9447000C94470024
:100040000C9447000C9447000C9447000C94470014
:100050000C94470011241FBECFE5D4E0DEBFCDBF16
:1000600010E0A0E6B0E0EAE2F4E002C005900D92F4
:10007000A836B107D9F710E0A8E6B0E001C01D929C
:10008000A836B107E1F70E949F010C9413020C946B
:100090000000282F207F25BBA898A998AA9A20E4C1
:1000A0003CE9F9013197F1F7AA9890E044E0880F14
:1000B000991F4A95E1F785BBA898A998AA9AC90102
:1000C0000197F1F7AA980895282F207F25BBA89AB9
:1000D000A998AA9A20E43CE9F9013197F1F7AA9886
:1000E00090E054E0880F991F5A95E1F785BBA89AD4
:1000F000A998AA9AC9010197F1F7AA980895CF93F0
:10010000DF93EC0184E00E9449000EC0CE016AE05A
:1001100070E00E94EC01805D0E946400CE016AE004
:1001200070E00E94EC01EB01209781F786E00E94CD
:100130004900DF91CF91089582E00E94490088E252
:100140000E94490086E00E9449008CE00E9449001C
:100150000895CF93DF93EC0103C021960E946400C1
:1001600088818823D1F7DF91CF910895EF92FF9294
:100170000F931F93CF93DF937EE0E72EC0E2DEE480
:100180006DE0F62E0BE017E0E2BACE010197F1F731
:10019000C89904C0C89BFECF87E366C0C99904C054
:1001A000C99BFECF84E360C0CA9904C0CA9BFECF3E
:1001B00081E35AC0CB9905C0CB9BFECF81E00E9462
:1001C0004900F2BACE010197F1F7C89904C0C89B63
:1001D000FECF88E349C0C99904C0C99BFECF85E31F
:1001E00043C0CA9904C0CA9BFECF82E33DC0CB99ED
:1001F00004C0CB9BFECF80E337C002BBCE0101978A
:10020000F1F7C89904C0C89BFECF89E32DC0C999F6
:1002100004C0C99BFECF86E327C0CA9904C0CA9B0D
:10022000FECF83E321C0CB9904C0CB9BFECF8DE3EF
:100230001BC012BBCE010197F1F7C89904C0C89B3F
:10024000FECF8FE211C0C99904C0C99902C08AE2E9
:100250000BC0CA9904C0CA9902C08DE205C0CB99EF
:1002600093CFCB9991CF8BE2DF91CF911F910F91DB
:10027000FF90EF9008950E94B600843391F185338A
:1002800070F48133E1F0823320F4803309F056C0FA
:100290004EC08233D1F0833309F050C01CC0873385
:1002A00091F1883330F4853311F1863309F046C07B
:1002B00024C0883371F1893309F040C030C080E830
:1002C0000E94490081E390E02FC080E80E9449002D
:1002D00082E390E029C080E80E94490083E390E037
:1002E00023C080E80E94490084E390E01DC080E8BC
:1002F0000E94490085E390E017C080E80E94490011
:1003000086E390E011C080E80E94490087E390E016
:100310000BC080E80E94490088E390E005C080E8B7
:100320000E94490089E390E00E947F00089580E8E0
:100330000E94490080E390E00E947F0008958FEFC3
:1003400084BB81BB1ABA8BBB0E949C000E94B60082
:100350008B3291F08C3218F48A32D9F505C08D3287
:1003600089F08F32B1F514C080E80E94490080E620
:1003700090E00E94A90013C080E80E94490082E634
:1003800090E00BC080E80E94490084E690E005C040
:1003900080E80E94490086E690E00E947F000E946B
:1003A000B60081E80E94490081E690E00E947F004B
:1003B0000E94B60082E80E94490082E690E00E9416
:1003C0007F0084EC0E94490083E690E00E947F0059
:1003D000BDCF0E943B01BACF97FB092E07260AD05A
:1003E00077FD04D00CD006D000201AF470956195EA
:1003F0007F4F0895F6F7909581959F4F0895AA1B1A
:10040000BB1B51E107C0AA1FBB1FA617B70710F0FF
:10041000A61BB70B881F991F5A95A9F78095909531
:0A042000BC01CD010895F894FFCF50
:08042A002A002B002D002F0019
:00000001FF
