:100000000C942A000C9447000C9447000C94470071
:100010000C9447000C9447000C9447000C94470044
:100020000C9447000C9447000C9447000C94470034
:100030000C9447000C9447000C9447000C94470024
:100040000C9447000C9447000C9447000C94470014
:100050000C94470011241FBECFE5D4E0DEBFCDBF16
:1000600010E0A0E6B0E0ECEEF2E002C005900D92E8
:10007000A036B107D9F710E0A0E6B0E001C01D92AC
:10008000A036B107E1F70E94E8000C9474010C94CB
:100090000000282F207F25BBA898A998AA9A20E4C1
:1000A0003CE9F9013197F1F7AA9890E044E0880F14
:1000B000991F4A95E1F785BBA898A998AA9AC90102
:1000C0000197F1F7AA980895282F207F25BBA89AB9
:1000D000A998AA9A20E43CE9F9013197F1F7AA9886
:1000E00090E054E0880F991F5A95E1F785BBA89AD4
:1000F000A998AA9AC9010197F1F7AA980895CF93F0
:10010000DF93EC0184E00E9449000EC0CE016AE05A
:1001100070E00E944D01805D0E946400CE016AE0A3
:1001200070E00E944D01EB01209781F786E00E946C
:100130004900DF91CF91089582E00E94490088E252
:100140000E94490086E00E9449008CE00E9449001C
:100150000895CF93DF93EC0103C021960E946400C1
:1001600088818823D1F7DF91CF91089580E40E94A0
:10017000490081E10E9464008AE00E94640084E0FA
:100180000E9464008FE10E94640080E00E9464008D
:1001900080E00E94640080E00E946400089580E492
:1001A0000E94490080E00E94640080E00E94640098
:1001B00080E00E9464008FE10E94640084E00E945D
:1001C00064008AE00E94640081E10E946400089556
:1001D000EF92FF921F93CF93DF938FEF84BB0E9428
:1001E0009C0080E890E060E9E62E61E0F62E26C0F3
:1001F000EC0121960E94490080E00E9464000E9468
:10020000CF0080EA9FE0F7013197F1F70197D9F726
:1002100081E00E9449008C2F0E94490080E00E94EA
:1002200064000E94B60080EA9FE0F7013197F1F781
:100230000197D9F781E00E944900CE01883A9105E3
:10024000BCF217EE812F0E94490080E00E946400FA
:100250000E94CF0080EA9FE0F7013197F1F7019704
:10026000D9F781E00E944900812F81500E94490006
:1002700080E00E9464000E94B60080EA9FE0F701DF
:100280003197F1F70197D9F781E00E9449001150A9
:100290001F3BC1F680E890E0D1CF97FB092E0726DF
:1002A0000AD077FD04D00CD006D000201AF4709547
:1002B00061957F4F0895F6F7909581959F4F08952A
:1002C000AA1BBB1B51E107C0AA1FBB1FA617B7077C
:1002D00010F0A61BB70B881F991F5A95A9F7809598
:0C02E0009095BC01CD010895F894FFCF6B
:00000001FF
