:100000000C942A000C9447000C9447000C94470071
:100010000C9447000C9447000C9447000C94470044
:100020000C9447000C9447000C9447000C94470034
:100030000C9447000C9447000C9447000C94470024
:100040000C9447000C9447000C9447000C94470014
:100050000C94470011241FBECFE5D4E0DEBFCDBF16
:1000600010E0A0E6B0E0E8E3F2E002C005900D92F7
:10007000A037B107D9F710E0A0E7B0E001C01D92AA
:10008000A037B107E1F70E94C5000C941A010C9447
:100090000000282F207F25BBA898A998AA9A24ECB5
:1000A00039E0F9013197F1F7AA9890E044E0880F20
:1000B000991F4A95E1F785BBA898A998AA9AC90102
:1000C0000197F1F7AA980895282F207F25BBA89AB9
:1000D000A998AA9A24EC39E0F9013197F1F7AA9886
:1000E00090E054E0880F991F5A95E1F785BBA89AD4
:1000F000A998AA9AC9010197F1F7AA980895CF93F0
:10010000DF93EC0184E00E9449000EC0CE016AE05A
:1001100070E00E940601805D0E946400CE016AE0EA
:1001200070E00E940601EB01209781F786E00E94B3
:100130004900DF91CF91089582E00E94490088E252
:100140000E94490086E00E9449008CE00E9449001C
:100150000895CF93DF93EC0103C021960E946400C1
:1001600088818823D1F7DF91CF9108953E9A86B197
:10017000876886B90895806487B9369A349BFECF24
:10018000349A24B135B1C9010895DF92EF92FF92FC
:100190000F931F93CF93DF938FEF8ABB84BB3E9A5D
:1001A00086B1876886B90E949C0070E4D72E68EA01
:1001B000E62E61E6F62EC4EFD1E0D7B8369A349B2E
:1001C000FECF349A04B115B180E80E94490080E660
:1001D00090E00E94A9008FE80E944900C8010E9497
:1001E0007F00C7010197F1F7C8018C9F80018D9FA7
:1001F000100D9C9F100D112485EC0E944900812F49
:100200008695869590E00E947F00D7CFAA1BBB1BE6
:1002100051E107C0AA1FBB1FA617B70710F0A61B06
:10022000B70B881F991F5A95A9F780959095BC0127
:08023000CD010895F894FFCF01
:100238004144435F76616C75653A202020200000B8
:00000001FF
