:100000000C942A000C9447000C9447000C94470071
:100010000C9447000C9447000C9447000C94470044
:100020000C9447000C9447000C9447000C94470034
:100030000C9447000C9447000C9447000C94470024
:100040000C9447000C9447000C9447000C94470014
:100050000C94470011241FBECFE5D4E0DEBFCDBF16
:1000600010E0A0E6B0E0E6E7F2E002C005900D92F5
:10007000A237B107D9F710E0A2E7B0E001C01D92A6
:10008000A237B107E1F70E94D5000C9439010C9416
:100090000000282F207F25BBA898A998AA9A20E4C1
:1000A0003CE9F9013197F1F7AA9890E044E0880F14
:1000B000991F4A95E1F785BBA898A998AA9AC90102
:1000C0000197F1F7AA980895282F207F25BBA89AB9
:1000D000A998AA9A20E43CE9F9013197F1F7AA9886
:1000E00090E054E0880F991F5A95E1F785BBA89AD4
:1000F000A998AA9AC9010197F1F7AA980895CF93F0
:10010000DF93EC0184E00E9449000EC0CE016AE05A
:1001100070E00E941201805D0E946400CE016AE0DE
:1001200070E00E941201EB01209781F786E00E94A7
:100130004900DF91CF91089582E00E94490088E252
:100140000E94490086E00E9449008CE00E9449001C
:100150000895CF93DF93EC0103C021960E946400C1
:1001600088818823D1F7DF91CF91089510BC87E66D
:1001700089B980B5866880BD8AB188618AB90895D9
:100180005D9BFECF8CB908955F9BFECF8CB1089527
:10019000CF93DF93EC0103C021960E946400888115
:1001A0008823D1F7DF91CF9108951F93CF93DF93E9
:1001B0008FEF84BB10BC87E689B980B5866880BDA7
:1001C0008AB188618AB90E949C0080E80E94490037
:1001D000C0E0D0E0C031D10521F480EC0E9449009C
:1001E00016C0C032D10599F480E80E94490080E62B
:1001F00090E00E94A90080EC0E94490080E690E017
:100200000E94A90080E80E944900C0E0D0E05F9B06
:10021000FECF1CB1812F0E9464005D9BFECF1CB9F4
:100220002196D8CF97FB092E07260AD077FD04D058
:100230000CD006D000201AF4709561957F4F089578
:10024000F6F7909581959F4F0895AA1BBB1B51E12E
:1002500007C0AA1FBB1FA617B70710F0A61BB70B36
:10026000881F991F5A95A9F780959095BC01CD01DB
:060270000895F894FFCF91
:100276002020202020202020202020202020202078
:02028600000076
:00000001FF
