:100000000C942A000C9447000C9447000C94470071
:100010000C9447000C9447000C9447000C94470044
:100020000C9447000C9447000C9447000C94470034
:100030000C9447000C9447000C9447000C94470024
:100040000C9447000C9447000C9447000C94470014
:100050000C94470011241FBECFE5D4E0DEBFCDBF16
:1000600010E0A0E6B0E0E8E8F3E002C005900D92F1
:10007000AE3AB107D9F710E0AEEAB0E001C01D9288
:10008000AE3AB107E1F70E94C7000C94C2010C948C
:10009000000087B1806C87B986B1876886B90895FA
:1000A00087B187B9369A349BFECF349A24B135B1E3
:1000B000C9010895282F207F25BBA898A998AA9A3E
:1000C00020E43CE9F9013197F1F7AA9890E044E087
:1000D000880F991F4A95E1F785BBA898A998AA9A15
:1000E000C9010197F1F7AA980895282F207F25BB11
:1000F000A89AA998AA9A20E43CE9F9013197F1F766
:10010000AA9890E054E0880F991F5A95E1F785BBB3
:10011000A89AA998AA9AC9010197F1F7AA980895EF
:1001200082E00E945A0088E20E945A0086E00E9403
:100130005A008CE00E945A000895CF93DF93EC019F
:1001400084E00E945A000EC0CE016AE070E00E9476
:100150009B01805D0E947500CE016AE070E00E9404
:100160009B01EB01209781F786E00E945A00DF9106
:10017000CF910895CF93DF93EC0103C021960E94A5
:10018000750088818823D1F7DF91CF910895CF93AF
:10019000DF938FEF84BB1ABA0E94900087B1806C06
:1001A00087B986B1876886B9C0E9D1E080E80E9446
:1001B0005A0080E690E00E94BA0088EE93E0FE01CB
:1001C0003197F1F70197D9F787B187B9369A349B00
:1001D000FECF349A24B135B1C901CD97879778F411
:1001E00086EC0E945A0089E690E00E94BA0088EEF0
:1001F00093E0FE013197F1F70197D9F7D7CFC90105
:1002000085569040C19778F486EC0E945A0080E7AA
:1002100090E00E94BA0088EE93E0FE013197F1F77A
:100220000197D9F7C3CFC90187599040C19778F496
:1002300086EC0E945A0087E790E00E94BA0088EEA0
:1002400093E0FE013197F1F70197D9F7AFCFC901DC
:10025000895C9040C19778F486EC0E945A008CE744
:1002600090E00E94BA0088EE93E0FE013197F1F72A
:100270000197D9F79BCFC9018B5F9040C19778F464
:1002800086EC0E945A0082E890E00E94BA0088EE54
:1002900093E0FE013197F1F70197D9F787CFC901B4
:1002A0008D529140C19778F486EC0E945A0089E8FB
:1002B00090E00E94BA0088EE93E0FE013197F1F7DA
:1002C0000197D9F773CFC9018F559140C19778F441
:1002D00086EC0E945A0080E990E00E94BA0088EE05
:1002E00093E0FE013197F1F70197D9F75FCF2159DC
:1002F00031407CF086EC0E945A0084E990E00E9434
:10030000BA0088EE93E0FE013197F1F70197D9F733
:100310004DCF80EC0E945A008AE990E00E94BA001A
:1003200088EE93E0FE013197F1F70197D9F781E06C
:100330000E945A003BCF97FB092E07260AD077FD73
:1003400004D00CD006D000201AF4709561957F4F30
:100350000895F6F7909581959F4F0895AA1BBB1BB2
:1003600051E107C0AA1FBB1FA617B70710F0A61BB5
:10037000B70B881F991F5A95A9F780959095BC01D6
:08038000CD010895F894FFCFB0
:10038800636F6C6F72203D2000766F696C65740036
:10039800696E6469676F00626C7565006772656590
:1003A8006E0079656C6C6F77006F72616E676500BF
:1003B80072656400776869746500756E61626C6562
:0E03C80020746F207265636F676E6973650045
:00000001FF
