:100000000C942A000C9447000C9447000C94470071
:100010000C9447000C9447000C9447000C94470044
:100020000C9447000C9447000C9447000C94470034
:100030000C9447000C9447000C9447000C94470024
:100040000C9447000C9447000C9447000C94470014
:100050000C94470011241FBECFE5D4E0DEBFCDBF16
:1000600010E0A0E6B0E0EEE7F2E002C005900D92ED
:10007000A837B107D9F710E0A8E7B0E001C01D929A
:10008000A837B107E1F70E94C8000C943D010C9419
:100090000000282F207F25BBA898A998AA9A20E4C1
:1000A0003CE9F9013197F1F7AA9890E044E0880F14
:1000B000991F4A95E1F785BBA898A998AA9AC90102
:1000C0000197F1F7AA980895282F207F25BBA89AB9
:1000D000A998AA9A20E43CE9F9013197F1F7AA9886
:1000E00090E054E0880F991F5A95E1F785BBA89AD4
:1000F000A998AA9AC9010197F1F7AA9808950F93B0
:100100001F938C0184E00E9449001FC0C8016AE06F
:1001100070E00E941601805D0E946400C8016AE0E0
:1001200070E00E941601162F072F862F972F6AE086
:1001300070E00E941601805D0E946400812F902F64
:100140006AE070E00E9416018B0101151105F1F6BD
:1001500086E00E9449001F910F91089582E00E945D
:10016000490088E20E94490086E00E9449008CE034
:100170000E9449000895CF93DF93EC0103C02196BC
:100180000E94640088818823D1F7DF91CF91089580
:100190000F931F93CF93DF938FEF87BB84BB0E9496
:1001A000AE000AE0C0E9D1E016E008BB88EE93E0BB
:1001B000FE013197F1F70197D9F780E80E944900D5
:1001C00080E690E00E94BB0088EE93E0FE0131974C
:1001D000F1F70197D9F781E00E94490088EE93E09A
:1001E000FE013197F1F70197D9F718BB88EE93E03C
:1001F000FE013197F1F70197D9F780E80E94490095
:1002000089E690E00E94BB0088EE93E0FE01319702
:10021000F1F70197D9F781E00E94490088EE93E059
:10022000FE013197F1F70197D9F7BFCF97FB092E60
:1002300007260AD077FD04D00CD006D000201AF48F
:10024000709561957F4F0895F6F7909581959F4F32
:100250000895AA1BBB1B51E107C0AA1FBB1FA6170D
:10026000B70710F0A61BB70B881F991F5A95A9F75F
:0E02700080959095BC01CD010895F894FFCFC4
:10027E006D6F746F72206F6E006D6F746F7220668B
:08028E006F72776172640000D9
:00000001FF
