:100000000C942A000C9447000C9447000C94470071
:100010000C9447000C9447000C9447000C94470044
:100020000C9447000C9447000C9447000C94470034
:100030000C9447000C9447000C9447000C94470024
:100040000C9447000C9447000C9447000C94470014
:100050000C94470011241FBECFE5D4E0DEBFCDBF16
:1000600010E0A0E6B0E0E0EDF1E002C005900D92F6
:10007000A036B107D9F710E0A0E6B0E001C01D92AC
:10008000A036B107E1F70E94A9000C94E6000C9499
:100090000000282F207F25BBA898A998AA9A20E4C1
:1000A0003CE9F9013197F1F7AA9890E044E0880F14
:1000B000991F4A95E1F785BBA898A998AA9AC90102
:1000C0000197F1F7AA980895282F207F25BBA89AB9
:1000D000A998AA9A20E43CE9F9013197F1F7AA9886
:1000E00090E054E0880F991F5A95E1F785BBA89AD4
:1000F000A998AA9AC9010197F1F7AA980895CF93F0
:10010000DF93EC0184E00E9449000EC0CE016AE05A
:1001100070E00E94BF00805D0E946400CE016AE032
:1001200070E00E94BF00EB01209781F786E00E94FB
:100130004900DF91CF91089582E00E94490088E252
:100140000E94490086E00E9449008CE00E9449001C
:100150000895CF93DF938FEF84BB0E949C00C0E98A
:10016000D1E08FE80E94490085E30E94640088EE98
:1001700093E0FE013197F1F70197D9F7F2CF97FBA2
:10018000092E07260AD077FD04D00CD006D0002017
:100190001AF4709561957F4F0895F6F790958195C3
:1001A0009F4F0895AA1BBB1B51E107C0AA1FBB1F8D
:1001B000A617B70710F0A61BB70B881F991F5A95F3
:1001C000A9F780959095BC01CD010895F894FFCFD3
:00000001FF
