:100000000C942A000C9447000C9447000C94470071
:100010000C9447000C9447000C9447000C94470044
:100020000C9447000C9447000C9447000C94470034
:100030000C9447000C9447000C9447000C94470024
:100040000C9447000C9447000C9447000C94470014
:100050000C94470011241FBECFE5D4E0DEBFCDBF16
:1000600010E0A0E6B0E0E4E8F2E002C005900D92F6
:10007000A637B107D9F710E0A6E7B0E001C01D929E
:10008000A637B107E1F70E94CC000C9440010C9414
:10009000000087B1806C87B986B1876886B90895FA
:1000A00087B187B9369A349BFECF349A24B135B1E3
:1000B000C9010895282F207F25BBA898A998AA9A3E
:1000C00024EC39E0F9013197F1F7AA9890E044E087
:1000D000880F991F4A95E1F785BBA898A998AA9A15
:1000E000C9010197F1F7AA980895282F207F25BB11
:1000F000A89AA998AA9A24EC39E0F9013197F1F766
:10010000AA9890E054E0880F991F5A95E1F785BBB3
:10011000A89AA998AA9AC9010197F1F7AA980895EF
:1001200082E00E945A0088E20E945A0086E00E9403
:100130005A008CE00E945A000895CF93DF93EC019F
:1001400084E00E945A000EC0CE016AE070E00E9476
:100150001901805D0E947500CE016AE070E00E9486
:100160001901EB01209781F786E00E945A00DF9188
:10017000CF910895CF93DF93EC0103C021960E94A5
:10018000750088818823D1F7DF91CF91089583B7D7
:100190008A6683BFBB9A0895FF920F931F93CF93F4
:1001A000DF938FEF84BB1ABA0E94900087B1806CF6
:1001B00087B986B1876886B983B78A6683BFBB9AD9
:1001C00068ECF62EC8EAD1E60EE11DE787B187B9E3
:1001D000369A349BFECF349A24B135B1C901885187
:1001E00091408B38910548F480E80E945A0080E6DF
:1001F00090E00E94BA001CBF18C081E02831380787
:100200004CF480E80E945A0087E690E00E94BA0011
:100210000CBF0BC0235A3140CCF280E80E945A0038
:100220008EE690E00E94BA00FCBECE010197F1F785
:10023000CDCF97FB092E07260AD077FD04D00CD02E
:1002400006D000201AF4709561957F4F0895F6F757
:10025000909581959F4F0895AA1BBB1B51E107C044
:10026000AA1FBB1FA617B70710F0A61BB70B881F46
:10027000991F5A95A9F780959095BC01CD010895D5
:04028000F894FFCF20
:10028400643D3520636D00643E3520636D00643C3D
:060294003520636D00003F
:00000001FF
