:100000000C942A000C9447000C9447000C94470071
:100010000C9447000C9447000C9447000C94470044
:100020000C9447000C9447000C9447000C94470034
:100030000C9447000C9447000C9447000C94470024
:100040000C9447000C9447000C9447000C94470014
:100050000C94470011241FBECFE5D4E0DEBFCDBF16
:1000600010E0A0E6B0E0E0E4F2E002C005900D92FE
:10007000AE37B107D9F710E0AEE7B0E001C01D928E
:10008000AE37B107E1F70E94B6000C941E010C9444
:100090000000282F207F25BBA898A998AA9A20E4C1
:1000A0003CE9F9013197F1F7AA9890E044E0880F14
:1000B000991F4A95E1F785BBA898A998AA9AC90102
:1000C0000197F1F7AA980895282F207F25BBA89AB9
:1000D000A998AA9A20E43CE9F9013197F1F7AA9886
:1000E00090E054E0880F991F5A95E1F785BBA89AD4
:1000F000A998AA9AC9010197F1F7AA980895CF93F0
:10010000DF93EC0184E00E9449000EC0CE016AE05A
:1001100070E00E94F700805D0E946400CE016AE0FA
:1001200070E00E94F700EB01209781F786E00E94C3
:100130004900DF91CF91089582E00E94490088E252
:100140000E94490086E00E9449008CE00E9449001C
:100150000895CF93DF93EC0103C021960E946400C1
:1001600088818823D1F7DF91CF9108951F93CF9392
:10017000DF938FEF84BB0E949C0028EE33E0C0E940
:10018000D1E005C0CE010197F1F721503040211593
:100190003105C1F710E8812F0E94490080E690E008
:1001A0000E94A90080E197E2FE013197F1F70197E3
:1001B000D9F781E00E9449001F5F173961F716E9FE
:1001C000812F0E9449008FE690E00E94A90080E103
:1001D00097E2FE013197F1F70197D9F781E00E948C
:1001E000490011501F3761F728EE33E0CBCF97FB62
:1001F000092E07260AD077FD04D00CD006D00020A7
:100200001AF4709561957F4F0895F6F79095819552
:100210009F4F0895AA1BBB1B51E107C0AA1FBB1F1C
:10022000A617B70710F0A61BB70B881F991F5A9582
:10023000A9F780959095BC01CD010895F894FFCF62
:10024000416E6B757368206B61756E64616C0061E3
:0E0250006E6B757368206B61756E64616C0077
:00000001FF
