:100000000C942A000C9447000C9447000C94470071
:100010000C9447000C9447000C9447000C94470044
:100020000C9447000C94B6000C9447000C944700C5
:100030000C9447000C9447000C9447000C94470024
:100040000C9447000C9447000C9447000C94470014
:100050000C94470011241FBECFE5D4E0DEBFCDBF16
:1000600010E0A0E6B0E0E6E8F2E002C005900D92F4
:10007000A037B107D9F710E0A0E7B0E001C01D92AA
:10008000A237B107E1F70E940A010C9441010C94D8
:100090000000282F207F25BBA898A998AA9A24ECB5
:1000A00039E0F9013197F1F7AA9890E044E0880F20
:1000B000991F4A95E1F785BBA898A998AA9AC90102
:1000C0000197F1F7AA980895282F207F25BBA89AB9
:1000D000A998AA9A24EC39E0F9013197F1F7AA9886
:1000E00090E054E0880F991F5A95E1F785BBA89AD4
:1000F000A998AA9AC9010197F1F7AA980895CF93F0
:10010000DF93EC0184E00E9449000EC0CE016AE05A
:1001100070E00E941A01805D0E946400CE016AE0D6
:1001200070E00E941A01EB01209781F786E00E949F
:100130004900DF91CF91089582E00E94490088E252
:100140000E94490086E00E9449008CE00E9449001C
:100150000895CF93DF93EC0103C021960E946400C1
:1001600088818823D1F7DF91CF9108951F920F9254
:100170000FB60F9211242F933F934F935F936F937A
:100180007F938F939F93AF93BF93EF93FF93809150
:1001900070009091710001969093710080937000AF
:1001A0000F97B1F480E80E94490080E690E00E9439
:1001B000A9008FEF88BB80E197E229E130E0F901E7
:1001C0003197F1F70197D9F71092710010927000F2
:1001D000FF91EF91BF91AF919F918F917F916F911F
:1001E0005F914F913F912F910F900FBE0F901F90F5
:1001F000189580E80E9449008AE690E00E94A900D4
:1002000080E49CE929E130E0F9013197F1F70197A9
:10021000D9F708958FEF87BB84BB89B7816089BF09
:1002200083B7856083BF0E949C00789418BA0E94AF
:10023000F900FCCF97FB092E07260AD077FD04D0E2
:100240000CD006D000201AF4709561957F4F089568
:10025000F6F7909581959F4F0895AA1BBB1B51E11E
:1002600007C0AA1FBB1FA617B70710F0A61BB70B26
:10027000881F991F5A95A9F780959095BC01CD01CB
:060280000895F894FFCF81
:10028600494E74657272757074006D61696E000016
:00000001FF
