:100000000C942A000C9447000C9447000C94470071
:100010000C9447000C9447000C94BA000C944700D1
:100020000C9447000C9447000C9447000C94470034
:100030000C9447000C9447000C9447000C94470024
:100040000C9447000C9447000C9447000C94470014
:100050000C94470011241FBECFE5D4E0DEBFCDBF16
:1000600010E0A0E6B0E0EEE2F3E002C005900D92F1
:10007000AE36B107D9F710E0AEE6B0E001C01D9290
:10008000A837B107E1F70E942B010C9495010C945D
:100090000000282F207F25BBA898A998AA9A24ECB5
:1000A00039E0F9013197F1F7AA9890E044E0880F20
:1000B000991F4A95E1F785BBA898A998AA9AC90102
:1000C0000197F1F7AA980895282F207F25BBA89AB9
:1000D000A998AA9A24EC39E0F9013197F1F7AA9886
:1000E00090E054E0880F991F5A95E1F785BBA89AD4
:1000F000A998AA9AC9010197F1F7AA9808950F93B0
:100100001F938C0184E00E944900C8016AE070E0FE
:100110000E946E01805D0E946400C8016AE070E088
:100120000E946E01CB016AE070E00E946E01805D6A
:100130000E94640086E00E9449001F910F9108957B
:1001400082E00E94490088E20E94490086E00E9405
:1001500049008CE00E9449000895CF93DF93EC01A1
:1001600003C021960E94640088818823D1F7DF9123
:10017000CF9108951F920F920FB60F9211248F9373
:100180009F9380916E0090916F00019690936F0005
:1001900080936E000A9709F04CC010926F00109285
:1001A0006E00809174009091750001969093750097
:1001B000809374000A9769F410927500109274008D
:1001C00080917200909173000196909373008093D8
:1001D00072008091720090917300CC9769F4109234
:1001E00073001092720080917000909171000196DE
:1001F00090937100809370008091700090917100D5
:10020000CC9769F410927100109270008091760082
:10021000909177000196909377008093760080917B
:10022000760090917700489721F410927700109211
:1002300076009F918F910F900FBE0F901F90189591
:1002400080E197E29BBD8ABD8EB589608EBD89B77E
:10025000806189BF08958FEF84BB0E94A0007894CD
:1002600080E80E94490080E690E00E94AD0081ECA9
:100270000E94490080917600909177000E947F0053
:1002800082EC0E9449008AE30E94640084EC0E9490
:10029000490080917000909171000E947F0085EC70
:1002A0000E9449008AE30E94640087EC0E94490092
:1002B00080917200909173000E947F0088EC0E94F0
:1002C00049008AE30E9464008AEC0E944900809100
:1002D0007400909175000E947F00C9CF97FB092E92
:1002E00007260AD077FD04D00CD006D000201AF4DF
:1002F000709561957F4F0895F6F7909581959F4F82
:100300000895AA1BBB1B51E107C0AA1FBB1FA6175C
:10031000B70710F0A61BB70B881F991F5A95A9F7AE
:0E03200080959095BC01CD010895F894FFCF13
:0E032E006469676974616C20636C6F636B00B7
:00000001FF
