:100000000C942A000C9447000C9447000C94470071
:100010000C9447000C9447000C9447000C94470044
:100020000C9447000C9447000C9447000C94470034
:100030000C9447000C9447000C9447000C94470024
:100040000C9447000C9447000C9447000C94470014
:100050000C94470011241FBECFE5D4E0DEBFCDBF16
:1000600010E0A0E6B0E0E0E2F3E002C005900D92FF
:10007000A036B107D9F710E0A0E6B0E001C01D92AC
:10008000A036B107E1F70E944D010C948E010C944B
:100090000000282F207F25BBA898A998AA9A24ECB5
:1000A00039E0F9013197F1F7AA9890E044E0880F20
:1000B000991F4A95E1F785BBA898A998AA9AC90102
:1000C0000197F1F7AA980895282F207F25BBA89AB9
:1000D000A998AA9A24EC39E0F9013197F1F7AA9886
:1000E00090E054E0880F991F5A95E1F785BBA89AD4
:1000F000A998AA9AC9010197F1F7AA9808950F93B0
:100100001F938C0184E00E9449001FC0C8016AE06F
:1001100070E00E946701805D0E946400C8016AE08F
:1001200070E00E946701162F072F862F972F6AE035
:1001300070E00E946701805D0E946400812F902F13
:100140006AE070E00E9467018B0101151105F1F66C
:1001500086E00E9449001F910F91089582E00E945D
:10016000490088E20E94490086E00E9449008CE034
:100170000E9449000895CF93DF93EC0103C02196BC
:100180000E94640088818823D1F7DF91CF91089580
:10019000EF92FF920F931F93CF93DF937EE0E72EB2
:1001A000C2EED4E06DE0F62E0BE017E0E2BACE012D
:1001B0000197F1F7C89904C0C89BFECF87E366C0DA
:1001C000C99904C0C99BFECF84E360C0CA9904C02A
:1001D000CA9BFECF81E35AC0CB9905C0CB9BFECF13
:1001E00081E00E944900F2BACE010197F1F7C89967
:1001F00004C0C89BFECF88E349C0C99904C0C99B0D
:10020000FECF85E343C0CA9904C0CA9BFECF82E3F8
:100210003DC0CB9904C0CB9BFECF80E337C002BB6F
:10022000CE010197F1F7C89904C0C89BFECF89E3BE
:100230002DC0C99904C0C99BFECF86E327C0CA99C7
:1002400004C0CA9BFECF83E321C0CB9904C0CB9BE3
:10025000FECF8DE31BC012BBCE010197F1F7C89909
:1002600004C0C89BFECF8FE211C0C99904C0C999D0
:1002700002C08AE20BC0CA9904C0CA9902C08DE2CA
:1002800005C0CB9993CFCB9991CF8BE2DF91CF91E2
:100290001F910F91FF90EF9008951F93CF93DF93DD
:1002A0008FEF84BB87BB81BB1ABA8BBB0E94AE00A9
:1002B000C8EAD1E60E94C800182F80E80E944900D1
:1002C000812F0E946400CE010197F1F7F3CF97FBD5
:1002D000092E07260AD077FD04D00CD006D00020C6
:1002E0001AF4709561957F4F0895F6F79095819572
:1002F0009F4F0895AA1BBB1B51E107C0AA1FBB1F3C
:10030000A617B70710F0A61BB70B881F991F5A95A1
:10031000A9F780959095BC01CD010895F894FFCF81
:00000001FF
