:100000000C942A000C9447000C9447000C94470071
:100010000C9447000C9447000C9447000C94470044
:100020000C9447000C9447000C9447000C94470034
:100030000C9447000C9447000C9447000C94470024
:100040000C9447000C9447000C9447000C94470014
:100050000C94470011241FBECFE5D4E0DEBFCDBF16
:1000600010E0A0E6B0E0EEECF0E002C005900D92EA
:10007000A036B107D9F710E0A0E6B0E001C01D92AC
:10008000A036B107E1F70E9449000C9465000C947A
:1000900000008FEF87BB1ABA4AE039E026E095E00E
:1000A00089B38F70883009F448BB89B38F7084306E
:1000B00009F438BB89B38F70863009F428BB89B343
:0E00C0008F70823069F798BBEBCFF894FFCFBA
:00000001FF
