:100000000C942A000C9447000C9447000C94470071
:100010000C9447000C9447000C9447000C94470044
:100020000C9447000C9447000C9447000C94470034
:100030000C9447000C9447000C9447000C94470024
:100040000C9447000C9447000C9447000C94470014
:100050000C94470011241FBECFE5D4E0DEBFCDBF16
:1000600010E0A0E6B0E0EAE2FFE102C005900D92E8
:10007000AA3DB107D9F710E0AAEDB0E001C01D928A
:10008000A23EB107E1F70E94F90D0C94930F0C9476
:1000900000008AB188618AB980B58E6880BD83E32B
:1000A00089B910BC08955F9BFECF8CB190E0089594
:1000B0005D9BFECF8CB90895FC0104C05D9BFECF13
:1000C0008CB9319680818823C9F7089585BBAA9A97
:1000D0008AEF90E00197F1F7AA98089585BB85B360
:1000E000856085BB8AEF90E00197F1F7AA980895A3
:1000F000282F207F25BBAA9A2AEF30E0F9013197FB
:10010000F1F7AA9890E044E0880F991F4A95E1F72B
:1001100085BBAA9AC9010197F1F7AA98089582E0D0
:100120000E94780088E20E94780086E00E947800B1
:100130008EE00E9478000895282F207F25BB25B3EC
:10014000256025BB2AEF30E0F9013197F1F7AA9835
:1001500090E054E0880F991F5A95E1F785BB85B36D
:10016000856085BBC9010197F1F7AA980895CF93DF
:10017000DF93EC0105C00E949C0086E00E9478009D
:1001800089918823C1F7DF91CF910895CF93DF93B1
:10019000EC0184E00E9478000EC0CE016AE070E0BD
:1001A0000E947F0F805D0E949C00CE016AE070E09B
:1001B0000E947F0FEB01209781F7DF91CF91089587
:1001C0004F925F926F927F928F929F92AF92BF9267
:1001D000CF92DF92EF92FF920F931F93CF93DF9313
:1001E000BBE0EB2EA2EE8A2EA4E09A2EF0E8AF2E12
:1001F000B12C09E110E0E0E56E2EE3EC7E2E74E216
:10020000472E74EF572E5F9BFECFFCB0CF2DD0E072
:10021000E8BAC4010197F1F7CE35D10521F061E0CC
:10022000C62ED12C24C080E80E94780081E00E9474
:100230007800B092CE00A092CD001092DF00109214
:10024000DE00C3010197F1F780E80E94780080E6A4
:1002500090E00E94B70080EC0E94780081E790E077
:100260000E94B700C2010197F1F7CC24DD24CE0132
:10027000815490404A9708F053C2C134D10579F4B3
:100280008091CD000E9478008F2D0E949C0088EB09
:100290009BE0F8013197F1F70197D9F788C0C23494
:1002A000D105B1F48091CD009091CE00019790934B
:1002B000CE008093CD000E9478008F2D0E949C007C
:1002C00088EB9BE0F8013197F1F70197D9F72BC044
:1002D000C334D105B1F48091CD009091CE00019747
:1002E0009093CE008093CD000E9478008F2D0E94C5
:1002F0009C0088EB9BE0F8013197F1F70197D9F763
:1003000012C0C434D10579F48091CD000E947800E8
:100310008F2D0E949C0088EB9BE0F8013197F1F74C
:100320000197D9F788C0C534D105B1F48091CD00CB
:100330009091CE0001979093CE008093CD000E94C3
:1003400078008F2D0E949C0088EB9BE0F80131978C
:10035000F1F70197D9F72BC0C634D105B1F48091DC
:10036000CD009091CE0001979093CE008093CD0068
:100370000E9478008F2D0E949C0088EB9BE0F80182
:100380003197F1F70197D9F712C0C734D10579F445
:100390008091CD000E9478008F2D0E949C0088EBF8
:1003A0009BE0F8013197F1F70197D9F788C0C8347D
:1003B000D105B1F48091CD009091CE00019790933A
:1003C000CE008093CD000E9478008F2D0E949C006B
:1003D00088EB9BE0F8013197F1F70197D9F72BC033
:1003E000C934D105B1F48091CD009091CE00019730
:1003F0009093CE008093CD000E9478008F2D0E94B4
:100400009C0088EB9BE0F8013197F1F70197D9F751
:1004100012C0CA34D10579F48091CD000E947800D1
:100420008F2D0E949C0088EB9BE0F8013197F1F73B
:100430000197D9F788C0CB34D105B1F48091CD00B4
:100440009091CE0001979093CE008093CD000E94B2
:1004500078008F2D0E949C0088EB9BE0F80131977B
:10046000F1F70197D9F72BC0CC34D105B1F48091C5
:10047000CD009091CE0001979093CE008093CD0057
:100480000E9478008F2D0E949C0088EB9BE0F80171
:100490003197F1F70197D9F712C0CD34D10579F42E
:1004A0008091CD000E9478008F2D0E949C0088EBE7
:1004B0009BE0F8013197F1F70197D9F78FC0CE345F
:1004C000D105B1F48091CD009091CE000197909329
:1004D000CE008093CD000E9478008F2D0E949C005A
:1004E00088EB9BE0F8013197F1F70197D9F72BC022
:1004F000CF34D105B1F48091CD009091CE00019719
:100500009093CE008093CD000E9478008F2D0E94A2
:100510009C0088EB9BE0F8013197F1F70197D9F740
:1005200012C0C035D10579F48091CD000E947800C9
:100530008F2D0E949C0088EB9BE0F8013197F1F72A
:100540000197D9F7A1C0C135D105B1F48091CD0093
:100550009091CE0001979093CE008093CD000E94A1
:1005600078008F2D0E949C0088EB9BE0F80131976A
:10057000F1F70197D9F744C0C235D105B1F48091A4
:10058000CD009091CE0001979093CE008093CD0046
:100590000E9478008F2D0E949C0088EB9BE0F80160
:1005A0003197F1F70197D9F72BC0C335D105B1F4D5
:1005B0008091CD009091CE0001979093CE008093D2
:1005C000CD000E9478008F2D0E949C0088EB9BE05C
:1005D000F8013197F1F70197D9F712C0C435D10569
:1005E00079F48091CD000E9478008F2D0E949C00AC
:1005F00088EB9BE0F8013197F1F70197D9F7E7C253
:10060000C535D105B1F48091CD009091CE00019710
:100610009093CE008093CD000E9478008F2D0E9491
:100620009C0088EB9BE0F8013197F1F70197D9F72F
:100630002BC0C635D105B1F48091CD009091CE008C
:1006400001979093CE008093CD000E9478008F2D6B
:100650000E949C0088EB9BE0F8013197F1F701972D
:10066000D9F712C0C735D10579F48091CD000E9429
:1006700078008F2D0E949C0088EB9BE0F801319759
:10068000F1F70197D9F7A3C2C835D105B1F480912C
:10069000CD009091CE0001979093CE008093CD0035
:1006A0000E9478008F2D0E949C0088EB9BE0F8014F
:1006B0003197F1F70197D9F78AC2C935D105B1F45D
:1006C0008091CD009091CE0001979093CE008093C1
:1006D000CD000E9478008F2D0E949C0088EB9BE04B
:1006E000F8013197F1F70197D9F771C2CA35D105F1
:1006F00009F06DC28091CD009091CE00019790934A
:10070000CE008093CD000E9478008F2D0E949C0027
:1007100088EB9BE0F8013197F1F70197D9F757C2C1
:10072000CE01815690404A9708F05AC2C136D10591
:1007300079F48091CD000E9478008F2D0E949C005A
:1007400088EB9BE0F8013197F1F70197D9F788C062
:10075000C236D105B1F48091CD009091CE000197C1
:100760009093CE008093CD000E9478008F2D0E9440
:100770009C0088EB9BE0F8013197F1F70197D9F7DE
:100780002BC0C336D105B1F48091CD009091CE003D
:1007900001979093CE008093CD000E9478008F2D1A
:1007A0000E949C0088EB9BE0F8013197F1F70197DC
:1007B000D9F712C0C436D10579F48091CD000E94DA
:1007C00078008F2D0E949C0088EB9BE0F801319708
:1007D000F1F70197D9F788C0C536D105B1F48091FA
:1007E000CD009091CE0001979093CE008093CD00E4
:1007F0000E9478008F2D0E949C0088EB9BE0F801FE
:100800003197F1F70197D9F72BC0C636D105B1F46E
:100810008091CD009091CE0001979093CE0080936F
:10082000CD000E9478008F2D0E949C0088EB9BE0F9
:10083000F8013197F1F70197D9F712C0C736D10502
:1008400079F48091CD000E9478008F2D0E949C0049
:1008500088EB9BE0F8013197F1F70197D9F788C051
:10086000C836D105B1F48091CD009091CE000197AA
:100870009093CE008093CD000E9478008F2D0E942F
:100880009C0088EB9BE0F8013197F1F70197D9F7CD
:100890002BC0C936D105B1F48091CD009091CE0026
:1008A00001979093CE008093CD000E9478008F2D09
:1008B0000E949C0088EB9BE0F8013197F1F70197CB
:1008C000D9F712C0CA36D10579F48091CD000E94C3
:1008D00078008F2D0E949C0088EB9BE0F8013197F7
:1008E000F1F70197D9F788C0CB36D105B1F48091E3
:1008F000CD009091CE0001979093CE008093CD00D3
:100900000E9478008F2D0E949C0088EB9BE0F801EC
:100910003197F1F70197D9F72BC0CC36D105B1F457
:100920008091CD009091CE0001979093CE0080935E
:10093000CD000E9478008F2D0E949C0088EB9BE0E8
:10094000F8013197F1F70197D9F712C0CD36D105EB
:1009500079F48091CD000E9478008F2D0E949C0038
:1009600088EB9BE0F8013197F1F70197D9F78FC039
:10097000CE36D105B1F48091CD009091CE00019793
:100980009093CE008093CD000E9478008F2D0E941E
:100990009C0088EB9BE0F8013197F1F70197D9F7BC
:1009A0002BC0CF36D105B1F48091CD009091CE000F
:1009B00001979093CE008093CD000E9478008F2DF8
:1009C0000E949C0088EB9BE0F8013197F1F70197BA
:1009D000D9F712C0C037D10579F48091CD000E94BB
:1009E00078008F2D0E949C0088EB9BE0F8013197E6
:1009F000F1F70197D9F7A1C0C137D105B1F48091C2
:100A0000CD009091CE0001979093CE008093CD00C1
:100A10000E9478008F2D0E949C0088EB9BE0F801DB
:100A20003197F1F70197D9F744C0C237D105B1F436
:100A30008091CD009091CE0001979093CE0080934D
:100A4000CD000E9478008F2D0E949C0088EB9BE0D7
:100A5000F8013197F1F70197D9F72BC0C337D105CA
:100A6000B1F48091CD009091CE0001979093CE008B
:100A70008093CD000E9478008F2D0E949C0088EB0F
:100A80009BE0F8013197F1F70197D9F712C0C4370D
:100A9000D10579F48091CD000E9478008F2D0E94BD
:100AA0009C0088EB9BE0F8013197F1F70197D9F7AB
:100AB0008EC0C537D105B1F48091CD009091CE00A4
:100AC00001979093CE008093CD000E9478008F2DE7
:100AD0000E949C0088EB9BE0F8013197F1F70197A9
:100AE000D9F72BC0C637D105B1F48091CD009091D4
:100AF000CE0001979093CE008093CD000E947800A5
:100B00008F2D0E949C0088EB9BE0F8013197F1F754
:100B10000197D9F712C0C737D10579F48091CD007C
:100B20000E9478008F2D0E949C0088EB9BE0F801CA
:100B30003197F1F70197D9F74AC0C837D105B1F419
:100B40008091CD009091CE0001979093CE0080933C
:100B5000CD000E9478008F2D0E949C0088EB9BE0C6
:100B6000F8013197F1F70197D9F731C0C937D105AD
:100B7000B1F48091CD009091CE0001979093CE007A
:100B80008093CD000E9478008F2D0E949C0088EBFE
:100B90009BE0F8013197F1F70197D9F718C0CA37F0
:100BA000D105A9F48091CD009091CE00019790934A
:100BB000CE008093CD000E9478008F2D0E949C0073
:100BC00088EB9BE0F8013197F1F70197D9F7809115
:100BD000CD009091CE0001969093CE008093CD00F1
:100BE000CE01C0970A9708F08FC0C133D10579F4C0
:100BF0008091CD000E9478008F2D0E949C0088EB90
:100C00009BE0F8013197F1F70197D9F748C0C2335B
:100C1000D10579F48091CD000E9478008F2D0E943B
:100C20009C0088EB9BE0F8013197F1F70197D9F729
:100C300048C0C333D10579F48091CD000E9478007B
:100C40008F2D0E949C0088EB9BE0F8013197F1F713
:100C50000197D9F748C0C533D10579F48091CD000B
:100C60000E9478008F2D0E949C0088EB9BE0F80189
:100C70003197F1F70197D9F758C0C633D10579F408
:100C80008091CD000E9478008F2D0E949C0088EBFF
:100C90009BE0F8013197F1F70197D9F746C0C733C8
:100CA000D10579F48091CD000E9478008F2D0E94AB
:100CB0009C0088EB9BE0F8013197F1F70197D9F799
:100CC00034C0C833D10579F48091CD000E947800FA
:100CD0008F2D0E949C0088EB9BE0F8013197F1F783
:100CE0000197D9F722C0E49701F58091CD000E94C9
:100CF00078008F2D0E949C0088EB9BE0F8013197D3
:100D0000F1F70197D9F711C0CB35D105C1F4809126
:100D1000CD000E94780080E20E949C0088EB9BE05E
:100D2000F8013197F1F70197D9F78091CD009091B3
:100D3000CE0001969093CE008093CD002EC0CC358E
:100D4000D105B1F48091CD009091CE0001979093A0
:100D5000CE008093CD000E94780080E20E949C002B
:100D600080E197E2F8013197F1F70197D9F715C0C3
:100D7000CD35D10591F4B092CE00A092CD0080E89F
:100D80000E94780082E890E00E94B70088E893E132
:100D9000F8013197F1F70197D9F7CD2809F033CA57
:100DA000DF91CF911F910F91FF90EF90DF90CF9047
:100DB000BF90AF909F908F907F906F905F904F907B
:100DC00008954EE022EE34E048BBC9010197F1F7E7
:100DD00089B38E3071F480E197E229E130E0F901C6
:100DE0003197F1F70197D9F78091CF005D9BFECF46
:100DF00036C089B38D3079F480E197E229E130E0A3
:100E0000F9013197F1F70197D9F78091CF005D9BF8
:100E1000FECF8F5F24C089B38B3079F480E197E2F5
:100E200029E130E0F9013197F1F70197D9F7809185
:100E3000CF005D9BFECF8E5F12C089B3873009F073
:100E4000C3CF80E197E229E130E0F9013197F1F772
:100E50000197D9F78091CF005D9BFECF8D5F8CB954
:100E600081E490E008958091DA000E949C008091D6
:100E7000DA005D9BFECF8CB984ED90E30197F1F72A
:100E800008952F923F924F925F926F927F928F922E
:100E90009F92AF92BF92CF92DF92EF92FF920F9309
:100EA0001F93CF93DF93F9E1CF2ED12CEAE52E2EBD
:100EB000312C8EE088BB82EE94E00197F1F789B384
:100EC0008E3009F09FC081E490E09093DB00809326
:100ED000DA008091CD000E9478008091D10090913D
:100EE000D200029711F40E9433078091D1009091B3
:100EF000D200019741F481E690E09093DB0080936B
:100F0000DA000E9433078091DC009091DD000197A8
:100F100041F481E390E09093DB008093DA000E943B
:100F2000330788E893E1F6013197F1F70197D9F794
:100F300000E010E072E4672E712C63E4862E912CA1
:100F400053E6A52EB12C42E6E42EF12C89B38E3067
:100F500009F050C07092DB006092DA008091CD0001
:100F60000E9478008091D1009091D200029711F4F4
:100F70000E9433078091D1009091D200019731F403
:100F8000F092DB00E092DA000E94330788E893E1F8
:100F9000F6013197F1F70197D9F7C0E0D0E089B3B6
:100FA0008E3019F59092DB008092DA008091CD00AE
:100FB0000E9478008091D1009091D200029711F4A4
:100FC0000E9433078091D1009091D200019731F4B3
:100FD000B092DB00A092DA000E94330788E893E128
:100FE000F6013197F1F70197D9F721968FE0C03AD2
:100FF000D807A9F60F5F1F4F91E00039190709F0D4
:10100000A5CFE8C189B38D3009F09FC084E490E09A
:101010009093DB008093DA008091CD000E947800ED
:101020008091D1009091D200029711F40E94330771
:101030008091D1009091D200019741F484E690E034
:101040009093DB008093DA000E9433078091DC00EC
:101050009091DD00019741F482E390E09093DB00F2
:101060008093DA000E94330788E893E1F601319714
:10107000F1F70197D9F700E010E035E4632E712C09
:1010800026E4822E912C96E6A92EB12C85E6E82E38
:10109000F12C89B38D3009F050C07092DB00609262
:1010A000DA008091CD000E9478008091D10090916B
:1010B000D200029711F40E9433078091D1009091E1
:1010C000D200019731F4F092DB00E092DA000E9446
:1010D000330788E893E1F6013197F1F70197D9F7E3
:1010E000C0E0D0E089B38D3019F59092DB0080929A
:1010F000DA008091CD000E9478008091D10090911B
:10110000D200029711F40E9433078091D100909190
:10111000D200019731F4B092DB00A092DA000E9475
:10112000330788E893E1F6013197F1F70197D9F792
:10113000219681E0C039D807A9F60F5F1F4F9FE0C5
:10114000003A190709F0A5CF45C189B38B3009F0E2
:101150009FC087E490E09093DB008093DA00809159
:10116000CD000E9478008091D1009091D20002972A
:1011700011F40E9433078091D1009091D200019721
:1011800041F487E690E09093DB008093DA000E94C0
:1011900033078091DC009091DD00019741F483E3F7
:1011A00090E09093DB008093DA000E94330788E898
:1011B00093E1F6013197F1F70197D9F700E010E0DC
:1011C000B8E46B2E712CA9E48A2E912CF9E6AF2E8F
:1011D000B12CE8E6EE2EF12C89B38B3009F050C02B
:1011E0007092DB006092DA008091CD000E9478005E
:1011F0008091D1009091D200029711F40E943307A0
:101200008091D1009091D200019731F4F092DB00EF
:10121000E092DA000E94330788E893E1F601319703
:10122000F1F70197D9F7C0E0D0E089B38B3019F519
:101230009092DB008092DA008091CD000E947800CD
:101240008091D1009091D200029711F40E9433074F
:101250008091D1009091D200019731F4B092DB00DF
:10126000A092DA000E94330788E893E1F6013197F3
:10127000F1F70197D9F7219681E0C039D807A9F68F
:101280000F5F1F4F9FE0003A190709F0A5CFA2C0DA
:1012900089B3873009F0A7C08AE490E09093DB001F
:1012A0008093DA008091CD000E9478008091D10077
:1012B0009091D200029711F40E9433078091D100DF
:1012C0009091D200019741F48AE690E09093DB0080
:1012D0008093DA000E9433078091DC009091DD005A
:1012E000019741F484E390E09093DB008093DA006F
:1012F0000E94330788E893E1F6013197F1F70197EF
:10130000D9F700E010E07BE4672E712C6CE4862EA8
:10131000912C5CE6A52EB12C4BE6E42EF12C89B382
:10132000873009F050C07092DB006092DA00809143
:10133000CD000E9478008091D1009091D200029758
:1013400011F40E9433078091D1009091D20001974F
:1013500031F4F092DB00E092DA000E94330788E873
:1013600093E1F6013197F1F70197D9F7C0E0D0E0AA
:1013700089B3873019F59092DB008092DA00809172
:10138000CD000E9478008091D1009091D200029708
:1013900011F40E9433078091D1009091D2000197FF
:1013A00031F4B092DB00A092DA000E94330788E8A3
:1013B00093E1F6013197F1F70197D9F7219681E092
:1013C000C039D807A9F60F5F1F4F9FE0003A1907F1
:1013D00009F0A5CF8091CD009091CE000196909319
:1013E000CE008093CD008DE088BB82EE94E0019723
:1013F000F1F789B38E3009F09FC08DE490E09093AF
:10140000DB008093DA008091CD000E94780080910B
:10141000D1009091D200029711F40E94330780917D
:10142000D1009091D200019741F48DE690E0909325
:10143000DB008093DA000E9433078091DC009091FA
:10144000DD00019741F485E390E09093DB00809309
:10145000DA000E94330788E893E1F6013197F1F74B
:101460000197D9F700E010E03EE4632E712C2FE4E1
:10147000822E912C9FE6A92EB12C8EE6E82EF12C1F
:1014800089B38E3009F050C07092DB006092DA00B0
:101490008091CD000E9478008091D1009091D2007F
:1014A000029711F40E9433078091D1009091D200ED
:1014B000019731F4F092DB00E092DA000E943307EA
:1014C00088E893E1F6013197F1F70197D9F7C0E089
:1014D000D0E089B38E3019F59092DB008092DA006B
:1014E0008091CD000E9478008091D1009091D2002F
:1014F000029711F40E9433078091D1009091D2009D
:10150000019731F4B092DB00A092DA000E94330719
:1015100088E893E1F6013197F1F70197D9F7219621
:101520008FE0C03AD807A9F60F5F1F4F91E000394E
:10153000190709F0A5CF50C289B38D3009F0D4C086
:1015400080E590E09093DB008093DA008091CD00FD
:101550000E9478008091D1009091D200029711F4FE
:101560000E9433078091D1009091D200019741F4FD
:1015700080E790E09093DB008093DA000E943307CD
:101580008091DC009091DD00019741F486E390E0CA
:101590009093DB008093DA000E94330788E893E1A0
:1015A000F6013197F1F70197D9F7EE24FF24B1E561
:1015B0004B2E512CA2E56A2E712CF2E78F2E912C26
:1015C000E1E7AE2EB12C89B38D3009F083C0509283
:1015D000DB004092DA008091CD000E94780080917B
:1015E000D1009091D200029711F40E9433078091AC
:1015F000D1009091D200019731F4B092DB00A0921B
:10160000DA000E94330788E893E1F6013197F1F799
:101610000197D9F700E010E089B38D3009F053C08D
:101620007092DB006092DA008091CD000E94780019
:101630008091D1009091D200029711F40E9433075B
:101640008091D1009091D200019731F49092DB000B
:101650008092DA000E94330788E893E1F60131971F
:10166000F1F70197D9F7C0E0D0E089B38D3039F5B3
:1016700083E590E09093DB008093DA008091CD00C9
:101680000E9478008091D1009091D200029711F4CD
:101690000E9433078091D1009091D200019741F4CC
:1016A00083E790E09093DB008093DA000E94330799
:1016B00088E893E1F6013197F1F70197D9F7219680
:1016C000C436D10591F60F5F1F4F91E0003919071D
:1016D00009F0A2CF0894E11CF11C80EAE8168FE023
:1016E000F80609F070CF78C189B38B3009F09FC03C
:1016F00084E590E09093DB008093DA008091CD0048
:101700000E9478008091D1009091D200029711F44C
:101710000E9433078091D1009091D200019741F44B
:1017200084E790E09093DB008093DA000E94330717
:101730008091DC009091DD00019741F487E390E017
:101740009093DB008093DA000E94330788E893E1EE
:10175000F6013197F1F70197D9F700E010E075E550
:10176000672E712C66E5862E912C56E7A52EB12C9E
:1017700045E7E42EF12C89B38B3009F050C070920C
:10178000DB006092DA008091CD000E9478008091A9
:10179000D1009091D200029711F40E9433078091FA
:1017A000D1009091D200019731F4F092DB00E092E9
:1017B000DA000E94330788E893E1F6013197F1F7E8
:1017C0000197D9F7C0E0D0E089B38B3019F590923A
:1017D000DB008092DA008091CD000E947800809139
:1017E000D1009091D200029711F40E9433078091AA
:1017F000D1009091D200019731F4B092DB00A09219
:10180000DA000E94330788E893E1F6013197F1F797
:101810000197D9F7219691E0C039D907A9F60F5F52
:101820001F4F8FE0003A180709F0A5CFD5C089B344
:10183000873009F0DAC087E590E09093DB00809371
:10184000DA008091CD000E9478008091D1009091C3
:10185000D200029711F40E9433078091D100909139
:10186000D200019741F487E790E09093DB008093EA
:10187000DA000E9433078091DC009091DD0001972F
:1018800041F488E390E09093DB008093DA000E94BB
:10189000330788E893E1F6013197F1F70197D9F71B
:1018A000EE24FF2438E5432E512C29E5622E712CBD
:1018B00099E7892E912C88E7A82EB12C89B387301F
:1018C00009F081C05092DB004092DA008091CD0097
:1018D0000E9478008091D1009091D200029711F47B
:1018E0000E9433078091D1009091D200019731F48A
:1018F000B092DB00A092DA000E94330788E893E1FF
:10190000F6013197F1F70197D9F700E010E089B3BC
:10191000873009F051C07092DB006092DA0080914C
:10192000CD000E9478008091D1009091D200029762
:1019300011F40E9433078091D1009091D200019759
:1019400031F49092DB008092DA000E94330788E83D
:1019500093E1F6013197F1F70197D9F7C0E0D0E0B4
:1019600089B3873029F53092DB002092DA0080912C
:10197000CD000E9478008091D1009091D200029712
:1019800011F40E9433078091D1009091D200019709
:1019900041F48AE790E09093DB008093DA000E94A4
:1019A000330788E893E1F6013197F1F70197D9F70A
:1019B0002196C436D105A1F60F5F1F4F91E0003983
:1019C000190709F0A4CF0894E11CF11C80EAE8167D
:1019D0008FE0F80609F072CF8091CD009091CE0093
:1019E00001969093CE008093CD008BE088BB82EE71
:1019F00094E00197F1F789B38E30B1F189B38D305E
:101A000099F189B38B3081F189B3873069F580E82A
:101A10000E94780081E00E94780080E890E0909336
:101A2000CE008093CD001092DF001092DE0080E5A2
:101A300093EC0197F1F780E80E94780080E690E04F
:101A40000E94B70080EC0E94780081E790E00E943D
:101A5000B70084E294EF0197F1F75D9BFECF8EE52E
:101A60008CB9EE24FF2403C001E0E02EF12C87E0C6
:101A700088BB82EE94E00197F1F789B38E3091F440
:101A800081E090E09093DD008093DC001092D20022
:101A90001092D10080EA9FE0F6013197F1F70197AB
:101AA000D9F791C089B38D30E1F48091CD000E94C7
:101AB000780080E20E949C005D9BFECF8BE58CB994
:101AC00080E197E2F6013197F1F70197D9F780911C
:101AD000CD009091CE0001969093CE008093CD00E2
:101AE00072C089B38B3071F582E090E09093D200A0
:101AF0008093D1001092DD001092DC0080EA9FE01C
:101B0000F6013197F1F70197D9F720E030E041E095
:101B100050E089B38B3079F41092DD001092DC0034
:101B20005093D2004093D10080EA9FE0F6013197B4
:101B3000F1F70197D9F72F5F3F4F9FE0203A390720
:101B400041F741C089B3873009F03DC05D9BFECFAE
:101B50008CE58CB98091CD009091CE000197909347
:101B6000CE008093CD000E94780080E20E949C000D
:101B700080E197E2F6013197F1F70197D9F7C0E0DC
:101B8000D0E01DE5B12E00E810E089B38730B1F454
:101B90005D9BFECFBCB88091D3000E94780082E8A4
:101BA00090E00E94B70080EA9FE0F6013197F1F7DC
:101BB0000197D9F71093CE000093CD00219687E0CE
:101BC000C03DD80711F7EF2809F073C9DF91CF9115
:101BD0001F910F91FF90EF90DF90CF90BF90AF904B
:101BE0009F908F907F906F905F904F903F902F903D
:101BF00008952F923F924F925F926F927F928F92B1
:101C00009F92AF92BF92CF92DF92FF920F931F935A
:101C1000DF93CF93CDB7DEB762970FB6F894DEBFF0
:101C20000FBECDBFDE011996E8ECF0E085E0019033
:101C30000D928150E1F7DE011E96E8ECF0E085E0C0
:101C400001900D928150E1F780EF8ABB8FE08BBB52
:101C50008FEF84BB87BB0E948F008AB188618AB9ED
:101C600080B58E6880BD83E389B910BC81E00E9495
:101C7000780084ED90E30197F1F780E80E94780006
:101C800080E690E00E94B70080EC0E94780081E737
:101C900090E00E94B70080E593EC0197F1F784EDA6
:101CA000C82E80E3D82E00E5A02E03ECB02E1E0136
:101CB0000894211C311C19E1812E912CB5E06B2E6A
:101CC000712C6C0E7D1EAEE04A2E512C4C0E5D1E0A
:101CD0008BE088BB82EE94E00197F1F789B38E30F8
:101CE00009F075C081E00E947800C6010197F1F704
:101CF00080EC0E94780083E990E00E94B700C50163
:101D00000197F1F780E80E94780081015F9BFECF88
:101D10008CB1F80180838AE20E949C0088E893E1FC
:101D2000F4013197F1F70197D9F70F5F1F4F0615AF
:101D3000170561F720E030E099818985981711F443
:101D400021E030E09A818A85981711F42F5F3F4F88
:101D50009B818B85981711F42F5F3F4F9C818C8559
:101D6000981711F42F5F3F4F24303105B9F481E00B
:101D70000E947800C6010197F1F783EC0E94780079
:101D800084EA90E00E94B700C5010197F1F70E9434
:101D9000E00088EA91E60197F1F79ACF80E80E9487
:101DA000780080EB90E00E94B70080E29EE4F401AE
:101DB0003197F1F70197D9F780E80E94780082E81F
:101DC00090E00E94B700C6010197F1F78BCF89B36D
:101DD0008D3009F07DCF81E00E947800C601019727
:101DE000F1F780EC0E94780083E990E00E94B70050
:101DF000C5010197F1F780E80E9478001092E10098
:101E00001092E0001EC00E94E106F82E0091E00052
:101E10001091E1008AE20E949C0088E893E1F401BD
:101E20003197F1F70197D9F7060D171DF801F082E8
:101E30008091E0009091E10001969093E100809301
:101E4000E0008091E0009091E1000497E4F240917D
:101E5000DE005091DF00D301F20120E030E00AC043
:101E60009C918081981711F44F5F5F4F2F5F3F4F18
:101E700011963196243031059CF34093DE00509347
:101E8000DF003093E1002093E00044305105D1F4AD
:101E900081E00E947800C6010197F1F783EC0E946F
:101EA00078008DEB90E00E94B700C5010197F1F733
:101EB0000E944107C5010197F1F71092DF001092CF
:101EC000DE0006CF80E80E94780080EB90E00E9460
:101ED000B7001092DF001092DE0080E29EE4F40171
:101EE0003197F1F70197D9F780E80E94780082E8EE
:101EF00090E00E94B700C6010197F1F76CCFAA1BD2
:101F0000BB1B51E107C0AA1FBB1FA617B70710F0E4
:101F1000A61BB70B881F991F5A95A9F78095909516
:0A1F2000BC01CD010895F894FFCF35
:101F2A0052332C433120666F722052206D6F6465E4
:101F3A000052332C433220666F722053206D6F6437
:101F4A006500202020202020202020202020202062
:101F5A002020002A446576696365205061697269A8
:101F6A006E672A005265636576696E672E2E2E00AB
:101F7A0054727920416761696E2E2E210053656E75
:101F8A0064696E672E2E2E00414141410080004156
:0A1F9A0000010080005B005C000005
:00000001FF
