:100000000C942A000C9447000C9447000C94470071
:100010000C9447000C9447000C9447000C94470044
:100020000C9447000C9447000C9447000C94470034
:100030000C9447000C9447000C9447000C94470024
:100040000C9447000C9447000C9447000C94470014
:100050000C94470011241FBECFE5D4E0DEBFCDBF16
:1000600010E0A0E6B0E0EAE5F3E002C005900D92F2
:10007000AA38B107D9F710E0AAE8B0E001C01D9294
:10008000AA38B107E1F70E94C5000C94AB010C94AB
:1000900000003E9A86B1876886B90895806487B962
:1000A000369A349BFECF349A24B135B1C9010895F4
:1000B000282F207F25BBA898A998AA9A20E43CE97C
:1000C000F9013197F1F7AA9890E044E0880F991F61
:1000D0004A95E1F785BBA898A998AA9AC901019702
:1000E000F1F7AA980895282F207F25BBA89AA998F0
:1000F000AA9A20E43CE9F9013197F1F7AA9890E037
:1001000054E0880F991F5A95E1F785BBA89AA998E2
:10011000AA9AC9010197F1F7AA98089582E00E946E
:10012000580088E20E94580086E00E9458008CE047
:100130000E9458000895CF93DF93EC0184E00E9461
:1001400058000EC0CE016AE070E00E948401805D1C
:100150000E947300CE016AE070E00E948401EB010E
:10016000209781F786E00E945800DF91CF91089593
:10017000CF93DF93EC0103C021960E947300888126
:100180008823D1F7DF91CF9108957F928F929F922C
:10019000AF92BF92CF92DF92EF92FF920F931F9395
:1001A000CF93DF938FEF84BB1ABA18BA87BB0E9434
:1001B0008E003E9A86B1876886B981E00E94580019
:1001C00005E0B02E13E0712EB1E48B2EAAE0CA2E0A
:1001D000F6E0DF2EE2E49E2E70E9E72E71E0F72EC6
:1001E00069E0A62EBABA7BBA87B8369A349BFECF9E
:1001F000349AC4B1D5B180E80E94580080E690E0FE
:100200000E94B80084E80E945800CE010E949B0022
:10021000CABADBBA97B8369A349BFECF349A04B187
:1002200015B180EC0E94580084E690E00E94B8006E
:1002300084EC0E945800C8010E949B00CE018752A6
:1002400092408539910578F488E80E94580088E644
:1002500090E00E94B800D8BA88EE93E0F701319799
:10026000F1F70197D9F7CE01825B9340879778F435
:1002700088E80E94580080E790E00E94B800A8BA81
:1002800088EE93E0F7013197F1F70197D9F7CE01A6
:10029000895F9240879778F488E80E94580089E740
:1002A00090E00E94B800C8BA88EE93E0F701319759
:1002B000F1F70197D9F7CE01895E9340C19778F4A1
:1002C00088E80E9458008FE790E00E94B800B8BA12
:1002D00088EE93E0F7013197F1F70197D9F7C3550D
:1002E000D340E19708F07ECF88E80E94580084E868
:1002F00090E00E94B80018BA88EE93E0F7013197B9
:10030000F1F70197D9F76ECF97FB092E07260AD090
:1003100077FD04D00CD006D000201AF470956195BA
:100320007F4F0895F6F7909581959F4F0895AA1BEA
:10033000BB1B51E107C0AA1FBB1FA617B70710F0D0
:10034000A61BB70B881F991F5A95A9F78095909502
:0A035000BC01CD010895F894FFCF21
:10035A00783A2000793A2000666F727761726400F9
:10036A006261636B77617264005249474854004C7A
:0A037A004546540053544F50000054
:00000001FF
