:100000000C942A000C9447000C9447000C94470071
:100010000C9447000C9447000C9447000C94470044
:100020000C9447000C9447000C9447000C94470034
:100030000C9447000C9447000C9447000C94470024
:100040000C9447000C9447000C9447000C94470014
:100050000C94470011241FBECFE5D4E0DEBFCDBF16
:1000600010E0A0E6B0E0EEEFF2E002C005900D92E5
:10007000A637B107D9F710E0A6E7B0E001C01D929E
:10008000A637B107E1F70E94D2000C947D010C94D1
:100090000000282F207F25BBA898A998AA9A20E4C1
:1000A0003CE9F9013197F1F7AA9890E044E0880F14
:1000B000991F4A95E1F785BBA898A998AA9AC90102
:1000C0000197F1F7AA980895282F207F25BBA89AB9
:1000D000A998AA9A20E43CE9F9013197F1F7AA9886
:1000E00090E054E0880F991F5A95E1F785BBA89AD4
:1000F000A998AA9AC9010197F1F7AA980895CF93F0
:10010000DF93EC0184E00E9449000EC0CE016AE05A
:1001100070E00E945601805D0E946400CE016AE09A
:1001200070E00E945601EB01209781F786E00E9463
:100130004900DF91CF91089582E00E94490088E252
:100140000E94490086E00E9449008CE00E9449001C
:100150000895CF93DF93EC0103C021960E946400C1
:1001600088818823D1F7DF91CF91089510BC87E66D
:1001700089B980B5866880BD8AB188618AB90895D9
:100180005D9BFECF8CB908955F9BFECF8CB1089527
:10019000FC0104C05D9BFECF31968CB98081882321
:1001A000C9F70895FF920F931F93CF93DF938FEFBB
:1001B00084BB87BB8ABB10BC87E689B980B58668DB
:1001C00080BD8AB188618AB90E949C0060E8F62EE1
:1001D000C0E9D1E00FEF5F9BFECF1CB186E80E9423
:1001E0004900812F0E946400113611F01134E1F4AE
:1001F00081E00E94490080EC0E94490080E690E086
:100200000E94A900E3E6F0E004C05D9BFECF3196BA
:100210008CB980818823C9F708BB80E197E2FE0191
:100220003197F1F70197D9F7113711F01135E1F452
:1002300081E00E94490080EC0E94490086E690E03F
:100240000E94A900EAE6F0E004C05D9BFECF319673
:100250008CB980818823C9F718BA80E197E2FE0142
:100260003197F1F70197D9F71A3719F01A3509F0D4
:10027000B2CF81E00E94490080EC0E9449008EE6E6
:1002800090E00E94A900EEE6F0E004C05D9BFECF86
:1002900031968CB980818823C9F7FBBA88EE93E048
:1002A000FE013197F1F70197D9F795CF97FB092E0A
:1002B00007260AD077FD04D00CD006D000201AF40F
:1002C000709561957F4F0895F6F7909581959F4FB2
:1002D0000895AA1BBB1B51E107C0AA1FBB1FA6178D
:1002E000B70710F0A61BB70B881F991F5A95A9F7DF
:0E02F00080959095BC01CD010895F894FFCF44
:1002FE006F6E004F4E006F6666004F464600627589
:06030E007A7A657200001E
:00000001FF
