:100000000C942A000C9447000C9447000C94470071
:100010000C9447000C9447000C9447000C94470044
:100020000C9447000C9447000C9447000C94470034
:100030000C9447000C9447000C9447000C94470024
:100040000C9447000C9447000C9447000C94470014
:100050000C94470011241FBECFE5D4E0DEBFCDBF16
:1000600010E0A0E6B0E0ECEEF2E002C005900D92E8
:10007000A239B107D9F710E0A2E9B0E001C01D92A2
:10008000A239B107E1F70E94B5000C9474010C94F9
:100090000000282F207F25BBA898A998AA9A20E4C1
:1000A0003CE9F9013197F1F7AA9890E044E0880F14
:1000B000991F4A95E1F785BBA898A998AA9AC90102
:1000C0000197F1F7AA980895282F207F25BBA89AB9
:1000D000A998AA9A20E43CE9F9013197F1F7AA9886
:1000E00090E054E0880F991F5A95E1F785BBA89AD4
:1000F000A998AA9AC9010197F1F7AA9808951F93A0
:10010000182F84E00E944900812F6AE00E94680154
:10011000892F805D0E946400812F6AE00E9468013F
:100120000E946801892F805D0E94640086E00E9421
:1001300049001F91089582E00E94490088E20E94D0
:10014000490086E00E9449008CE00E944900089521
:10015000CF93DF93EC0103C021960E946400888155
:100160008823D1F7DF91CF910895CF92DF92FF924C
:100170000F931F93CF93DF938FEF84BB87BB81BB1C
:100180001ABA8BBB12BA0E949B00C0E0D0E060E9B3
:10019000C62E61E0D62E80E80E94490080E690E0FD
:1001A0000E94A80088EE93E0F6013197F1F70197DD
:1001B000D9F782EC0E9449008BE690E00E94A800EB
:1001C00085EC0E9449008BE690E00E94A80088EC34
:1001D0000E9449008BE690E00E94A80084EC0E94F7
:1001E00049008AE30E94640087EC0E9449008AE388
:1001F0000E9464008EE082BB80EA9FE00197F1F7E5
:10020000C899C9CF62C080E80E9449008EE690E09C
:100210000E94A800FF2483EC0E9449008F2D0E94B9
:100220007F0000E086EC0E944900802F0E947F0042
:1002300010E089EC0E944900812F0E947F0080E13C
:1002400097E2F6013197F1F70197D9F7C9991CC0E8
:10025000C99BFECF2196C130D10551F480E80E94A0
:1002600049008AE790E00E94A800C999FECF0CC01F
:10027000C230D10549F480E80E9449008EE690E042
:100280000E94A800C0E0D0E0CA9B10C011C080E866
:100290000E94490086E890E00E94A80080E197E271
:1002A000F6013197F1F70197D9F775CFCA9BEFCFD8
:1002B0001F5F1C3309F0BDCF0F5F0C3309F0B2CFC5
:1002C000F3948DE0F81609F0A6CFC89964CF9BCFC0
:1002D000991B79E004C0991F961708F0961B881F98
:0C02E0007A95C9F780950895F894FFCF37
:1002EC0053746F70205761746368003030002020A5
:1002FC00205374617274202020002020205041551E
:10030C0053452020200020202053746F7020202083
:02031C000000DF
:00000001FF
